:100000000C9463000C948B000C948B000C94CC0724
:100010000C94CC070C94CC070C948B000C948B00A4
:100020000C948B000C948B000C948B000C948B0024
:100030000C948B000C948B000C948B000C948B0014
:100040000C9482070C948B000C9450070C942A0794
:100050000C948B000C948B000C948B000C948B00F4
:100060000C948B000C948B000000000024002700EF
:100070002A0000000008000201000003040700003D
:1000800000000000000000000000230026002900FE
:1000900000000000250028002B00040404040404D0
:1000A0000404020202020202030303030303010227
:1000B00004081020408001020408102001020408F6
:1000C00010204408090C11241FBECFEFD8E0DEBF7A
:1000D000CDBF24E0AAE3B3E001C01D92A737B20769
:1000E000E1F713E0A0E0B1E0EAE2FDE102C0059033
:1000F0000D92AA33B107D9F710E0C2E6D0E004C0F0
:100100002197FE010E94900CC136D107C9F70E94C9
:1001100036090C94880E0C940000FC012481358172
:100120006217730720F480819181009729F410925F
:10013000820382E893E00895860F971F0895AF9297
:10014000BF92CF92DF92EF92FF920F931F93CF93C4
:10015000DF936C017B018B01040F151FEB015E0126
:10016000AE18BF08C017D10759F06991D601ED91BB
:10017000FC910190F081E02DC6010995892B79F75A
:10018000C501DF91CF911F910F91FF90EF90DF900C
:10019000CF90BF90AF900895FC01538D448D252FD3
:1001A00030E0842F90E0821B930B541710F0CF9611
:1001B000089501970895FC01918D828D981761F043
:1001C000A28DAE0FBF2FB11D5D968C91928D9F5F5A
:1001D0009F73928F90E008958FEF9FEF0895FC0139
:1001E000918D828D981731F0828DE80FF11D858DEC
:1001F00090E008958FEF9FEF0895FC01918D228D7F
:10020000892F90E0805C9F4F821B91098F73992703
:1002100008958DE893E00E94FD0021E0892B09F408
:1002200020E0822F0895FC01A48DA80FB92FB11DE5
:10023000A35ABF4F2C91848D90E001968F7399271C
:10024000848FA689B7892C93A089B1898C918370FA
:1002500080648C93938D848D981306C00288F389F3
:10026000E02D80818F7D80830895EF92FF920F9320
:100270001F93CF93DF93EC0181E0888F9B8D8C8D52
:1002800098131AC0E889F989808185FF15C09FB746
:10029000F894EE89FF896083E889F9898081837009
:1002A000806480839FBF81E090E0DF91CF911F91B8
:1002B0000F91FF90EF900895F62E0B8D10E00F5FD9
:1002C0001F4F0F731127E02E8C8D8E110CC00FB6AF
:1002D00007FCFACFE889F989808185FFF5CFCE0147
:1002E0000E941301F1CFEB8DEC0FFD2FF11DE35AAE
:1002F000FF4FF0829FB7F8940B8FEA89FB898081CA
:100300008062CFCFCF93DF93EC01888D8823B9F043
:10031000AA89BB89E889F9898C9185FD03C0808110
:1003200086FD0DC00FB607FCF7CF8C9185FFF2CF8D
:10033000808185FFEDCFCE010E941301E9CFDF91CF
:10034000CF91089590E0FC01EE58FF4F2491FC01FD
:10035000E255FF4F3491FC01E656FF4FE491EE2346
:10036000C9F0222339F0233001F1A8F4213019F12A
:10037000223029F1F0E0EE0FFF1FE057FF4FA5916B
:10038000B4918FB7F894EC91611126C030953E235B
:100390003C938FBF08952730A9F02830C9F024304E
:1003A00049F7809180008F7D03C0809180008F7716
:1003B00080938000DFCF84B58F7784BDDBCF84B599
:1003C0008F7DFBCF8091B0008F778093B000D2CF2C
:1003D0008091B0008F7DF9CF3E2BDACFCF93DF93A2
:1003E00090E0FC01E255FF4F249186569F4FFC019F
:1003F00084918823D1F090E0880F991FFC01E8597F
:10040000FF4FA591B491FC01E057FF4FC591D491E6
:1004100061110EC09FB7F8948C91E22FE0958E2366
:100420008C932881E223E8839FBFDF91CF910895C9
:100430008FB7F894EC91E22BEC938FBFF6CF3FB7D8
:10044000F89480917E0390917F03A0918003B091F6
:10045000810326B5A89B05C02F3F19F00196A11D69
:10046000B11D3FBFBA2FA92F982F8827BC01CD01FE
:10047000620F711D811D911D42E0660F771F881F5D
:10048000991F4A95D1F708958F929F92AF92BF928C
:10049000CF92DF92EF92FF924B015C010E941F020C
:1004A0006B017C010E941F026C197D098E099F0956
:1004B000683E734081059105A8F321E0821A9108F6
:1004C000A108B10888EEC80E83E0D81EE11CF11C1B
:1004D00081149104A104B10429F7FF90EF90DF90FB
:1004E000CF90BF90AF909F908F90089520918503FB
:1004F000309186032817390771F490918303809116
:100500008403981741F0E0918303F0E0E35CFC4F33
:10051000808190E008958FEF9FEF08950895EF9206
:10052000FF920F931F93CF93DF93DC015C96ED90C6
:10053000FC905D97E114F10479F481E090E013966A
:100540009C938E93129790E080E0DF91CF911F9162
:100550000F91FF90EF9008955196ED91FC91529775
:1005600050968C915097982F90950FB75E962C913E
:100570005E97122F127021FD6095F894208111234F
:1005800019F1282B2083E7012197F1F728E0462F66
:1005900050E0308160FF1AC0382B3083E70121978B
:1005A000F1F7BA0175956795215089F7112381F00C
:1005B0008081892380830FBF5C968D919C910197E8
:1005C000F1F781E090E0C1CF2923DCCF3923E5CFDB
:1005D0009081892BEFCF20918503309186032817D6
:1005E000390771F4809184032091830390E0805C4B
:1005F0009F4F821B910960E470E00E94680C08958F
:1006000090E080E0089520918503309186032817BB
:100610003907B9F49091830380918403981789F086
:10062000E0918303F0E0E35CFC4F80812091830341
:1006300030E02F5F3F4F2F7333272093830390E0E9
:1006400008958FEF9FEF0895089590E080E008955A
:10065000CF93DF93EC0160E08E810E94A20161E004
:100660008E810E94A20160E08E810E94A2018BE82F
:1006700091E00197F1F7DF91CF910895CF92DF924A
:10068000EF92FF920F931F93CF93DF936C017C0146
:1006900087E0E80EF11CD0E0C0E0062F10E0B801C2
:1006A0000C2E02C0759567950A94E2F76170F70108
:1006B00081917F010E94A2012196C430D10579F772
:1006C000C601DF91CF911F910F91FF90EF90DF90C6
:1006D000CF900C942803CF92DF92EF92FF920F936A
:1006E0001F93CF93DF93EC01F62E642F8C810E9431
:1006F000A2018D818F3F19F060E00E94A2010F2DB1
:1007000010E08F8584FF25C06E0187E0C80ED11CE4
:10071000F12CE12CB8010E2C02C0759567950A9456
:10072000E2F76170F60181916F010E94A201FFEF73
:10073000EF1AFF0A88E0E816F10461F7CE01DF91B5
:10074000CF911F910F91FF90EF90DF90CF900C947D
:100750002803B80184E0759567958A95E1F7CE0185
:100760000E943E036F2DCE01DF91CF911F910F911B
:10077000FF90EF90DF90CF900C943E0340E0682F05
:100780008BE594E00C946B0381E00E94BE038BE345
:100790009FE10197F1F70895CF93DF93823029F419
:1007A00090916A04986090936A0480936E0410920A
:1007B0006F0480E48093700480E18093710480E58D
:1007C0008093720461E080915F040E94EE01809149
:1007D00060048F3F19F061E00E94EE0161E08091BA
:1007E00061040E94EE01CBE5D4E09E012B5534401C
:1007F00080916A0484FD0BC084E090E02196281764
:10080000390744F461E08E810E94EE01EECF88E06A
:1008100090E0F4CF8BE39DE00197F1F760E08091E9
:100820005F040E94A20160E0809161040E94A20125
:10083000809160048F3F19F060E00E94A2018091D6
:100840006A0484FD34C063E08BE594E00E943E03BB
:10085000CBE4D6E4CE010197F1F763E08BE594E0B9
:100860000E943E032197F1F763E08BE594E00E943C
:100870003E0383E592E00197F1F762E08BE594E0B7
:100880000E943E0380916A0480620E94BE0384E05D
:1008900080936B048CE00E94BE030E94C40382E03C
:1008A00080936C0486E0DF91CF910C94BE0380624C
:1008B0000E94BE038BE496E40197F1F780916A04ED
:1008C00080620E94BE0383E592E00197F1F7809178
:1008D0006A0480620E94BE03D5CFE0916E04E230CC
:1008E00040F4E150F0E0E55AFB4F848980680C94B5
:1008F000BE03E1E0F7CF41E00E946B0381E090E0AE
:1009000008958F929F92AF92BF92CF92DF92EF9213
:10091000FF920F931F93CF93DF93FC010190002070
:10092000E9F731978F01081B190B7C01D0E0C0E07B
:10093000A9F430E020E081E0232B09F080E0DF9192
:10094000CF911F910F91FF90EF90DF90CF90BF90CC
:10095000AF909F908F900895C1E0D0E02FB7F894AA
:100960008091890390918A03A0918B03B0918C03AD
:100970002FBF8093950390939603A0939703B09312
:1009800098038DE893E00E94DB0097FF54C02FB7D7
:10099000F8948091890390918A03A0918B03B09180
:1009A0008C032FBF4091950350919603609197035C
:1009B00070919803841B950BA60BB70B4091910384
:1009C000509192036091930370919403841795075B
:1009D000A607B707B0F22FEF3FEFADCF209709F48E
:1009E000BDCF4F01AE012197D4012E914D01022EB2
:1009F000000C330B2817390719F0209799F7AECF61
:100A0000209709F4A9CFB7016F01CC1ADD0A30E0B5
:100A100020E0DB01AD90BD01D601BD906D01AB10B2
:100A200005C02F5F3F4F2C173D0798F3C217D30720
:100A3000C9F6EA0193CFF701EC0FFD1F2081022ECA
:100A4000000C330B2817390749F621960C171D07A0
:100A500009F084CF6ECF8DE893E00E94FD00892BD2
:100A600091F086E391E00E948104882339F081E0CF
:100A700090E09093880380938703089510928803F1
:100A800010928703E8CF08950E94090181110C9408
:100A90002B050895FB0101900020E9F73197AF0184
:100AA000461B570BDC01ED91FC910280F381E02D98
:100AB0000994FC0144815581608171818DE893E046
:100AC0000E949F0064E471E08DE893E00E944A0573
:100AD00068EC70E080E090E00C944402CF93DF93E8
:100AE000BC018DE893E00E944A05EC0164E471E0EA
:100AF0008DE893E00E944A058C0F9D1FDF91CF91F6
:100B000008950C944A05FC0180819181009711F0B1
:100B10000C94320D08950F931F93CF93DF93EC0144
:100B200088819981009759F02A813B8126173707E0
:100B300030F081E0DF91CF911F910F9108958B01EB
:100B40006F5F7F4F0E94BB0D009759F09983888398
:100B50001B830A832C813D81232B59F7FC011082D2
:100B6000E8CF80E0E7CFEF92FF920F931F93CF93F0
:100B7000DF9300D0CDB7DEB78C0169831A82FC0108
:100B8000E480F580FFEFEF1AFF0AB7010E948B05A2
:100B9000882381F0F8012081318184819581BE0113
:100BA0006F5F7F4F820F931F0E94810EF801F582C5
:100BB000E48281E00F900F90DF91CF911F910F9110
:100BC000FF90EF900895EF92FF920F931F93CF93B2
:100BD000DF93EC017B018A01BA010E948B05288119
:100BE0003981811114C02115310519F0C9010E9404
:100BF000320D198218821D821C821B821A82CE013C
:100C0000DF91CF911F910F91FF90EF9008951D8379
:100C10000C83B701C9010E94810EF1CF50E040E082
:100C200066E471E00C94E305CF92DF92EF92FF92BD
:100C30000F931F93CF93DF9310923C03EE24E39422
:100C400080E2F82E80913C038111D0C086E394E0CD
:100C50000E940E068CE394E00E94EB02181619061F
:100C6000D4F5C0903A03D0903B038CE394E00E940B
:100C70000303182F682F86E394E00E94B305E60172
:100C80002196D0933B03C0933A03C730D105E4F4D7
:100C9000B60186E394E00E948D00FC019081FE0184
:100CA000EA5BFE4F8081981779F010923B03109217
:100CB0003A0386E394E00E940E061D3059F6109226
:100CC0003B0310923A03C6CF1D3021F6C234D10542
:100CD000B4F3E0923C0380913C03882309F4BACF3B
:100CE000C0903A03D0903B0380E394E00E940E064C
:100CF0008AE294E00E940E0610E000E0D0E0C0E03E
:100D0000CC15DD0544F5BE0186E394E00E948D001C
:100D1000FC0180818C3211F40F5F1F4F219602304D
:100D2000110561F4BE0186E394E00E948D00FC0190
:100D3000608180E394E00E94B305E2CF04301105A6
:100D4000F9F6BE0186E394E00E948D00FC0160810B
:100D50008AE294E0F0CF60913404709135046150E0
:100D6000710980E394E00E948D00FC01F0826091A3
:100D70002E0470912F04615071098AE294E00E9460
:100D80008D00FC01F0820E94C4036EE471E08BE5EB
:100D900094E00E94810540913404509135046091A3
:100DA0003004709131048BE594E00E949F000E9412
:100DB0006D0463E571E08BE594E00E94810540914C
:100DC0002E0450912F0460912A0470912B048BE51E
:100DD00094E00E949F0010923B0310923A0360ED52
:100DE00077E080E090E00E9444022CCFDF91CF9129
:100DF0001F910F91FF90EF90DF90CF900895FB012E
:100E0000DC0111961C921E9213961C921E92129750
:100E100015961C921E9214978617970749F06081C9
:100E200071816115710521F0448155810C94E305B0
:100E30000895FC011182108213821282158214829D
:100E4000FB0101900020E9F73197AF01461B570BDA
:100E50000C94E3051F920F920FB60F9211242F935B
:100E60003F934F935F936F937F938F939F93AF9332
:100E7000BF93EF93FF938DE893E00E941301FF91DE
:100E8000EF91BF91AF919F918F917F916F915F9102
:100E90004F913F912F910F900FBE0F901F9018957B
:100EA0001F920F920FB60F9211242F938F939F933F
:100EB000EF93FF93E0919D03F0919E038081E09179
:100EC000A303F091A40382FD1BC090818091A6032F
:100ED0008F5F8F732091A703821741F0E091A603E3
:100EE000F0E0E357FC4F958F8093A603FF91EF91BD
:100EF0009F918F912F910F900FBE0F901F9018957B
:100F00008081F4CF1F920F920FB60F9211242F936E
:100F10003F938F939F93AF93BF9380918903909159
:100F20008A03A0918B03B0918C0330917D0323E061
:100F3000230F2D3758F50196A11DB11D20937D0378
:100F40008093890390938A03A0938B03B0938C03BF
:100F500080917E0390917F03A0918003B0918103E3
:100F60000196A11DB11D80937E0390937F03A093F2
:100F70008003B0938103BF91AF919F918F913F9177
:100F80002F910F900FBE0F901F90189526E8230FFA
:100F90000296A11DB11DD2CF1F920F920FB60F92D4
:100FA00011242F933F934F935F936F937F938F936E
:100FB0009F93AF93BF93EF93FF93E0918503F091DD
:100FC0008603309749F0A685B7858585968D91FF74
:100FD00014C09C918923A1F4FF91EF91BF91AF912F
:100FE0009F918F917F916F915F914F913F912F9141
:100FF0000F900FBE0F901F9018959C91892361F759
:10100000A389B4899C918589809589238C9386894D
:1010100097890197F1F7608D718DA685B785558504
:1010200038E020E0CB010197F1F7822F90E0959511
:101030008795282F4C91452309F02068315091F76E
:10104000868D81FD20958091840390E001968F73B9
:10105000992730918303381799F0A0918403B0E069
:10106000A35CBC4F2C9380938403828D938D019756
:10107000F1F7A389B4898C919589892B8C93ACCF96
:10108000868D8160868FF1CFCF92DF92EF92FF92B3
:101090001092900310928F0398EEC92E93E0D92EF0
:1010A000E12CF12CC0929103D0929203E092930331
:1010B000F09294038AE091E090938E0380938D03E5
:1010C00085EC90E090939A038093990384EC90E0F0
:1010D00090939C0380939B0380EC90E090939E03FD
:1010E00080939D0381EC90E09093A00380939F03F5
:1010F00082EC90E09093A2038093A10386EC90E0B1
:101100009093A4038093A3031092A6031092A703C5
:101110001092A8031092A90310925E0410925D042D
:101120008EE291E090935C0480935B0487E080936F
:101130005F048FEF8093600486E08093610485E014
:101140008093620484E08093630483E0809364046A
:1011500082E08093650410926604109267041092F6
:1011600068041092690410926A0481E00E94CC0322
:1011700010923F0410923E04C0924004D092410469
:10118000E0924204F09243048CE191E090933D049C
:1011900080933C0410925304109252041092550410
:1011A000109254041092570410925604109259044D
:1011B0001092580460915A046E7F6D7F60935A04B8
:1011C0006695617081E068278BE00E94A20161E072
:1011D0008BE00E94EE01E9EBF0E0E491E0934C0437
:1011E000E5EAF0E0E491F0E0EE0FFF1FE057FF4F7B
:1011F0008591949190934E0480934D0460E08AE031
:101200000E94EE0180915A0481FD04C061E08AE0F1
:101210000E94A2018AE080934804E8EBF0E0E491A8
:10122000E0934904E4EAF0E0E491F0E0EE0FFF1F00
:10123000EA57FF4F8591949190934B0480934A0411
:1012400066E471E086E394E00E94190769E571E0C5
:1012500080E394E00E94190768E671E08AE294E076
:10126000FF90EF90DF90CF900C941907CF93DF930E
:1012700000D000D000D0CDB7DEB7789484B58260BE
:1012800084BD84B5816084BD85B5826085BD85B52A
:10129000816085BD80916E00816080936E001092A8
:1012A0008100809181008260809381008091810023
:1012B00081608093810080918000816080938000B4
:1012C0008091B10084608093B1008091B000816012
:1012D0008093B00080917A00846080937A0080913E
:1012E0007A00826080937A0080917A008160809396
:1012F0007A0080917A00806880937A001092C10011
:1013000082E00E94CC03E0919D03F0919E0382E075
:101310008083E0919903F0919A031082E0919B03FE
:10132000F0919C038FEC80831092A503E091A103C0
:10133000F091A20386E08083E0919F03F091A003E7
:10134000808180618083E0919F03F091A003808180
:1013500088608083E0919F03F091A0038081806882
:101360008083E0919F03F091A00380818F7D808333
:10137000109257041092560410925504109254047F
:1013800010925304109252048DE991E09093590405
:101390008093580490914804963108F047C02DEB93
:1013A00030E030935304209352042BE931E0309322
:1013B0005504209354042CE231E0309357042093D9
:1013C00056042091680084E0983048F031E09E3067
:1013D00008F430E081E001C0880F3A95EAF7822BEB
:1013E000809368002DE630E0983050F02BE630E036
:1013F0009E3030F02CE630E0963110F030E020E006
:101400003093500420934F04292F30E0983008F097
:101410006CC081E001C0880F9A95EAF7809351046F
:1014200080915804909159040197F1F780915604E6
:1014300090915704892B49F1E0918503F09186033F
:1014400084E0EC33F80709F1309739F0A389B489C7
:101450009C918589809589238C9380915A048E7FF5
:1014600080935A0410928403109283038CE394E0D7
:101470009093860380938503E0914F04F09150048C
:10148000808190915104892B808366E771E08BE520
:1014900094E00E9481050E946D0467E871E08BE58D
:1014A00094E00E94810560ED77E080E090E00E948A
:1014B00044020E94C40368E971E08BE594E00E9455
:1014C000810589EA91E00E946E0511E08DE893E0C4
:1014D0000E94FD0018161906ACF48CEA91E00E94F7
:1014E0008104882399F310E0F1CF9E3040F4285016
:1014F000310981E001C0880F2A95EAF78FCF2E507D
:101500003109F7CF68EE73E080E090E00E9444027A
:101510001111D7CF0E94C4036FEA71E08BE594E00C
:101520000E94810568EE73E080E090E00E94440232
:101530000E94C40362EC71E08BE594E00E94810597
:1015400081ED91E00E946E0511E08DE893E00E942C
:10155000FD001816190644F48CEA91E00E948104FB
:10156000882399F310E0F1CF68EE73E080E090E01B
:101570000E9444021111E4CF0E94C40366ED71E0A1
:101580008BE594E00E94810568EE73E080E090E0D6
:101590000E9444020E94C4036FED71E08BE594E069
:1015A0000E94810581EF91E00E946E0511E08DE8B7
:1015B00093E00E94FD001816190644F48AEF91E0AA
:1015C0000E948104882399F310E0F1CF68EE73E064
:1015D00080E090E00E9444021111E4CF0E94C40315
:1015E00067E072E08BE594E00E94810568EE73E0AD
:1015F00080E090E00E9444020E94C4030E94C40361
:1016000087E192E00E946E0569E272E08BE594E06A
:101610000E9481050E946D046AE372E08BE594E00C
:101620000E9481050E94140660ED77E080E090E062
:101630000E9444020E94C4036BE472E08BE594E0D4
:101640000E9481050E946D046BE572E08BE594E0D9
:101650000E94810560ED77E080E090E00E94440206
:101660000E94C40368E672E08BE594E00E94810565
:1016700010928803109287030E942B0580918703A4
:1016800090918803892B09F4BCC00E94140685E759
:1016900092E00E946E0560E971E080E090E00E94B7
:1016A00044028FE792E00E946E0560E971E080E0FD
:1016B00090E00E94440267E972E0CE0101960E9428
:1016C0001907CE0101960E945905CE0101960E948C
:1016D00083056FEA72E0CE0101960E941907CE01E0
:1016E00001960E945905CE0101960E94830561ED85
:1016F00072E08DE893E00E94810560E374E0CE0122
:1017000001960E94FF06CE0101960E945905CE0166
:1017100001960E9483056BED72E08DE893E00E94D4
:1017200081056AE274E0CE0101960E94FF06CE01B7
:1017300001960E945905CE0101960E94830566EE2E
:1017400072E08DE893E00E94810566E471E08DE827
:1017500093E00E94810560E374E0CE0101960E944F
:10176000FF06CE0101960E945905CE0101960E9406
:1017700083056CE28DE893E00E94350166E471E038
:101780008DE893E00E9481056AE274E0CE01019643
:101790000E94FF06CE0101960E945905CE010196D6
:1017A0000E94830564E073E0CE0101960E94190750
:1017B000CE0101960E945905CE0101960E94830533
:1017C0006AE18DE893E00E94350160ED77E080E00A
:1017D00090E00E9444020E94C4036CE273E08BE537
:1017E00094E00E94810560ED77E080E090E00E9447
:1017F00044020E94C40368E672E08BE594E00E9414
:1018000081050E940901882309F436CF0E942B0527
:1018100033CF8AE294E00E94830580E394E00E9443
:10182000830586E394E00E9483058CE191E0909328
:101830003D0480933C0480918503909186038C53F2
:10184000944071F4E0914F04F091500490818091A4
:10185000510480958923808310928603109285031A
:1018600008952F923F924F925F926F927F928F9244
:101870009F92AF92BF92CF92DF92EF92FF920F931F
:101880001F93CF93DF93CDB7DEB7CA1BDB0B0FB629
:10189000F894DEBF0FBECDBF09942A8839884888E6
:1018A0005F846E847D848C849B84AA84B984C8847C
:1018B000DF80EE80FD800C811B81AA81B981CE0F73
:1018C000D11D0FB6F894DEBF0FBECDBFED01089558
:1018D00097FB072E16F4009407D077FD09D00E94DD
:1018E0007C0C07FC05D03EF4909581959F4F0895A0
:1018F000709561957F4F0895AA1BBB1B51E107C0EE
:10190000AA1FBB1FA617B70710F0A61BB70B881F8F
:10191000991F5A95A9F780959095BC01CD0108951E
:10192000EE0FFF1F0590F491E02D09940F931F9384
:10193000CF93DF938230910510F482E090E0E09144
:101940007504F091760430E020E0B0E0A0E030973C
:1019500099F42115310509F44AC0281B390B2430AC
:101960003105D8F58A819B816115710589F1FB01EB
:1019700093838283FE0111C04081518102811381D2
:1019800048175907E0F04817590799F4109761F084
:1019900012960C93129713961C933296CF01DF91F7
:1019A000CF911F910F9108950093750410937604C1
:1019B000F4CF2115310551F04217530738F0A90132
:1019C000DB019A01BD01DF01F801C1CFEF01F9CFC1
:1019D0009093760480937504CDCFFE01E20FF31F40
:1019E000819391932250310939832883D7CF209155
:1019F000730430917404232B41F42091020130913F
:101A000003013093740420937304209100013091FA
:101A100001012115310541F42DB73EB74091040174
:101A200050910501241B350BE0917304F09174046F
:101A3000E217F307A0F42E1B3F0B2817390778F0A5
:101A4000AC014E5F5F4F2417350748F04E0F5F1F04
:101A50005093740440937304819391939FCFF0E06B
:101A6000E0E09CCFCF93DF930097E9F0FC01329741
:101A700013821282A0917504B0917604ED0130E0DA
:101A800020E01097A1F420813181820F931F2091D3
:101A90007304309174042817390709F061C0F0937A
:101AA0007404E0937304DF91CF910895EA01CE1797
:101AB000DF07E8F54A815B819E0141155105B1F7C9
:101AC000E901FB83EA8349915991C40FD51FEC17B3
:101AD000FD0761F4808191810296840F951FE901D1
:101AE00099838883828193819B838A83F0E0E0E0FD
:101AF00012968D919C9113970097B9F52D913C9179
:101B00001197CD010296820F931F2091730430919B
:101B100074042817390739F6309751F51092760476
:101B200010927504B0937404A0937304BCCFD38354
:101B3000C28340815181840F951FC817D90761F472
:101B40004E5F5F4F88819981480F591F51834083B1
:101B50008A819B81938382832115310509F0B0CF5F
:101B6000F0937604E09375049ECFFD01DC01C0CFB5
:101B700013821282D7CFB0E0A0E0E1ECFDE00C943C
:101B8000330C8C01009751F4CB010E94960C8C0110
:101B9000C801CDB7DEB7E0E10C944F0CFC01E60FB5
:101BA000F71F9C0122503109E217F30708F49DC08A
:101BB000D901CD91DC911197C617D70798F0C530A0
:101BC000D10530F3CE0104978617970708F3C61B9B
:101BD000D70B2297C193D1936D937C93CF010E9431
:101BE000320DD6CF5B01AC1ABD0A4C018C0E9D1E86
:101BF000A0917504B0917604512C412CF12CE12C6C
:101C0000109731F5809173049091740488159905AB
:101C100009F05CC04616570608F058C080910001D4
:101C200090910101009741F48DB79EB74091040156
:101C300050910501841B950BE817F90708F055C072
:101C4000F0937404E0937304F90171836083A0CF6F
:101C50008D919C91119712966C90129713967C908F
:101C60001397A815B90559F56C0142E0C40ED11CB3
:101C7000CA14DB0420F1AC014A195B09DA0112969F
:101C8000159780F06282738251834083D9016D93EE
:101C90007C93E114F10471F0D7011396FC93EE9359
:101CA000129776CF22968C0F9D1FF9019183808326
:101CB000F301EFCFF0937604E093750469CF4816F3
:101CC000590608F42C017D01D3019ACFCB010E9463
:101CD000960C7C01009749F0AE01B8010E94780E85
:101CE000C8010E94320D870153CF10E000E050CFB1
:101CF000FB01DC0102C001900D9241505040D8F729
:101D00000895FB01DC0101900D920020E1F7089598
:101D100010E0C2E6D0E004C0FE010E94900C2196C3
:0A1D2000C336D107C9F7F894FFCFCE
:101D2A000000770480000000000035019F00CC000D
:101D3A008201FD00DB00EF00000000008F029F001F
:101D4A0025038E02EB0203037602000000007B04E7
:101D5A009F0025032403547261636B2056656869EA
:101D6A00636C65000D0A00244750474741004C61E7
:101D7A00743A004C6F6E673A004E6F2052616E677C
:101D8A0065202020202020004E6F2052616E67655A
:101D9A0020202020200056656869636C65205472F3
:101DAA0061636B696E670020202020537973746524
:101DBA006D2020202020200046696E64696E67200D
:101DCA004D6F64756C652E2E004154004F4B004DCB
:101DDA006F64756C6520436F6E6E65637465642EFF
:101DEA002E0044697361626C696E67204543484FEF
:101DFA000041544530004563686F204F464600460F
:101E0A00696E64696E67204E6574776F726B2E2EE9
:101E1A000041542B4350494E3F002B4350494E3A00
:101E2A00205245414459004E6574776F726B2046C3
:101E3A006F756E642E2E0041542B434E4D493D3230
:101E4A002C322C302C302C300047505320496E69EC
:101E5A007469616C697A696E670020204E6F204749
:101E6A0050532052616E676520200047505320521C
:101E7A00616E676520466F756E640047505320692E
:101E8A00732052656164790053797374656D2052C9
:101E9A00656164790041542B434D47463D31004109
:101EAA00542B434D47533D222B3931383230303091
:101EBA003335393033220056656869636C652054BE
:101ECA007261636B696E6720416C6572743A00597E
:101EDA006F75722056656869636C65204375727206
:101EEA00656E74204C6F636174696F6E2069733A12
:101EFA00004C617469747564653A004C6F6E676969
:101F0A00747564653A0068747470733A2F2F777722
:101F1A00772E676F6F676C652E636F6D2F6D6170BB
:101F2A00732F4000506C656173652074616B652086
:101F3A00736F6D6520616374696F6E20736F6F6E66
:101F4A002E2E0A5468616E6B796F75004D65737336
:0A1F5A006167652053656E74000096
:00000001FF
